{
  "_format": "hh-sol-artifact-1",
  "contractName": "Auction",
  "sourceName": "contracts/Auction.sol",
  "abi": [
    {
      "inputs": [
        {
          "internalType": "contract IERC721",
          "name": "_nft",
          "type": "address"
        }
      ],
      "stateMutability": "nonpayable",
      "type": "constructor"
    },
    {
      "anonymous": false,
      "inputs": [
        {
          "indexed": true,
          "internalType": "address",
          "name": "previousOwner",
          "type": "address"
        },
        {
          "indexed": true,
          "internalType": "address",
          "name": "newOwner",
          "type": "address"
        }
      ],
      "name": "OwnershipTransferred",
      "type": "event"
    },
    {
      "inputs": [],
      "name": "AUCTION_SERVICE_FEE_RATE",
      "outputs": [
        {
          "internalType": "uint256",
          "name": "",
          "type": "uint256"
        }
      ],
      "stateMutability": "view",
      "type": "function"
    },
    {
      "inputs": [],
      "name": "MINIMUM_BID_RATE",
      "outputs": [
        {
          "internalType": "uint256",
          "name": "",
          "type": "uint256"
        }
      ],
      "stateMutability": "view",
      "type": "function"
    },
    {
      "inputs": [
        {
          "internalType": "uint256",
          "name": "_auctionId",
          "type": "uint256"
        }
      ],
      "name": "cancelAuction",
      "outputs": [],
      "stateMutability": "nonpayable",
      "type": "function"
    },
    {
      "inputs": [
        {
          "internalType": "uint256",
          "name": "_tokenId",
          "type": "uint256"
        },
        {
          "internalType": "uint256",
          "name": "_initialPrice",
          "type": "uint256"
        },
        {
          "internalType": "uint256",
          "name": "_startTime",
          "type": "uint256"
        },
        {
          "internalType": "uint256",
          "name": "_endTime",
          "type": "uint256"
        }
      ],
      "name": "createAuction",
      "outputs": [],
      "stateMutability": "nonpayable",
      "type": "function"
    },
    {
      "inputs": [
        {
          "internalType": "uint256",
          "name": "_auctionId",
          "type": "uint256"
        }
      ],
      "name": "finishAuction",
      "outputs": [],
      "stateMutability": "nonpayable",
      "type": "function"
    },
    {
      "inputs": [
        {
          "internalType": "uint256",
          "name": "_auctionId",
          "type": "uint256"
        }
      ],
      "name": "getAuction",
      "outputs": [
        {
          "components": [
            {
              "internalType": "address",
              "name": "auctioneer",
              "type": "address"
            },
            {
              "internalType": "uint256",
              "name": "_tokenId",
              "type": "uint256"
            },
            {
              "internalType": "uint256",
              "name": "initialPrice",
              "type": "uint256"
            },
            {
              "internalType": "address",
              "name": "previousBidder",
              "type": "address"
            },
            {
              "internalType": "uint256",
              "name": "lastBid",
              "type": "uint256"
            },
            {
              "internalType": "address",
              "name": "lastBidder",
              "type": "address"
            },
            {
              "internalType": "uint256",
              "name": "startTime",
              "type": "uint256"
            },
            {
              "internalType": "uint256",
              "name": "endTime",
              "type": "uint256"
            },
            {
              "internalType": "bool",
              "name": "completed",
              "type": "bool"
            },
            {
              "internalType": "bool",
              "name": "active",
              "type": "bool"
            },
            {
              "internalType": "uint256",
              "name": "auctionId",
              "type": "uint256"
            }
          ],
          "internalType": "struct Auction.AuctionInfo",
          "name": "",
          "type": "tuple"
        }
      ],
      "stateMutability": "view",
      "type": "function"
    },
    {
      "inputs": [
        {
          "internalType": "bool",
          "name": "_active",
          "type": "bool"
        }
      ],
      "name": "getAuctionByStatus",
      "outputs": [
        {
          "components": [
            {
              "internalType": "address",
              "name": "auctioneer",
              "type": "address"
            },
            {
              "internalType": "uint256",
              "name": "_tokenId",
              "type": "uint256"
            },
            {
              "internalType": "uint256",
              "name": "initialPrice",
              "type": "uint256"
            },
            {
              "internalType": "address",
              "name": "previousBidder",
              "type": "address"
            },
            {
              "internalType": "uint256",
              "name": "lastBid",
              "type": "uint256"
            },
            {
              "internalType": "address",
              "name": "lastBidder",
              "type": "address"
            },
            {
              "internalType": "uint256",
              "name": "startTime",
              "type": "uint256"
            },
            {
              "internalType": "uint256",
              "name": "endTime",
              "type": "uint256"
            },
            {
              "internalType": "bool",
              "name": "completed",
              "type": "bool"
            },
            {
              "internalType": "bool",
              "name": "active",
              "type": "bool"
            },
            {
              "internalType": "uint256",
              "name": "auctionId",
              "type": "uint256"
            }
          ],
          "internalType": "struct Auction.AuctionInfo[]",
          "name": "",
          "type": "tuple[]"
        }
      ],
      "stateMutability": "view",
      "type": "function"
    },
    {
      "inputs": [
        {
          "internalType": "uint256",
          "name": "_auctionId",
          "type": "uint256"
        }
      ],
      "name": "joinAuction",
      "outputs": [],
      "stateMutability": "payable",
      "type": "function"
    },
    {
      "inputs": [
        {
          "internalType": "address",
          "name": "",
          "type": "address"
        },
        {
          "internalType": "address",
          "name": "",
          "type": "address"
        },
        {
          "internalType": "uint256",
          "name": "",
          "type": "uint256"
        },
        {
          "internalType": "bytes",
          "name": "",
          "type": "bytes"
        }
      ],
      "name": "onERC721Received",
      "outputs": [
        {
          "internalType": "bytes4",
          "name": "",
          "type": "bytes4"
        }
      ],
      "stateMutability": "pure",
      "type": "function"
    },
    {
      "inputs": [],
      "name": "owner",
      "outputs": [
        {
          "internalType": "address",
          "name": "",
          "type": "address"
        }
      ],
      "stateMutability": "view",
      "type": "function"
    },
    {
      "inputs": [],
      "name": "renounceOwnership",
      "outputs": [],
      "stateMutability": "nonpayable",
      "type": "function"
    },
    {
      "inputs": [
        {
          "internalType": "address",
          "name": "newOwner",
          "type": "address"
        }
      ],
      "name": "transferOwnership",
      "outputs": [],
      "stateMutability": "nonpayable",
      "type": "function"
    }
  ],
  "bytecode": "0x60806040523480156200001157600080fd5b5060405162002fee38038062002fee8339818101604052810190620000379190620001e9565b620000576200004b6200009f60201b60201c565b620000a760201b60201c565b80600160006101000a81548173ffffffffffffffffffffffffffffffffffffffff021916908373ffffffffffffffffffffffffffffffffffffffff160217905550506200021b565b600033905090565b60008060009054906101000a900473ffffffffffffffffffffffffffffffffffffffff169050816000806101000a81548173ffffffffffffffffffffffffffffffffffffffff021916908373ffffffffffffffffffffffffffffffffffffffff1602179055508173ffffffffffffffffffffffffffffffffffffffff168173ffffffffffffffffffffffffffffffffffffffff167f8be0079c531659141344cd1fd0a4f28419497f9722a3daafe3b4186f6b6457e060405160405180910390a35050565b600080fd5b600073ffffffffffffffffffffffffffffffffffffffff82169050919050565b60006200019d8262000170565b9050919050565b6000620001b18262000190565b9050919050565b620001c381620001a4565b8114620001cf57600080fd5b50565b600081519050620001e381620001b8565b92915050565b6000602082840312156200020257620002016200016b565b5b60006200021284828501620001d2565b91505092915050565b612dc3806200022b6000396000f3fe6080604052600436106100a75760003560e01c806396b5a7551161006457806396b5a755146101bc578063bd0a079d146101e5578063c00a6fb714610210578063cf266ed01461024d578063f0194f8914610276578063f2fde38b14610292576100a7565b8063150b7a02146100ac578063431f21da146100e95780636aadfdd014610112578063715018a61461013d57806378bd7935146101545780638da5cb5b14610191575b600080fd5b3480156100b857600080fd5b506100d360048036038101906100ce9190611faa565b6102bb565b6040516100e0919061206d565b60405180910390f35b3480156100f557600080fd5b50610110600480360381019061010b9190612088565b6102e9565b005b34801561011e57600080fd5b5061012761089a565b60405161013491906120fe565b60405180910390f35b34801561014957600080fd5b5061015261089f565b005b34801561016057600080fd5b5061017b60048036038101906101769190612119565b610927565b6040516101889190612260565b60405180910390f35b34801561019d57600080fd5b506101a6610ad8565b6040516101b3919061228b565b60405180910390f35b3480156101c857600080fd5b506101e360048036038101906101de9190612119565b610b01565b005b3480156101f157600080fd5b506101fa610f83565b60405161020791906120fe565b60405180910390f35b34801561021c57600080fd5b50610237600480360381019061023291906122d2565b610f88565b6040516102449190612490565b60405180910390f35b34801561025957600080fd5b50610274600480360381019061026f9190612119565b611291565b005b610290600480360381019061028b9190612119565b611729565b005b34801561029e57600080fd5b506102b960048036038101906102b491906124b2565b611c43565b005b60007f150b7a023d4804d13e8c85fb27262cb750cf6ba9f9dd3bb30d90f482ceeb4b1f905095945050505050565b8142111561032c576040517f08c379a00000000000000000000000000000000000000000000000000000000081526004016103239061253c565b60405180910390fd5b80821061036e576040517f08c379a0000000000000000000000000000000000000000000000000000000008152600401610365906125ce565b60405180910390fd5b826000106103b1576040517f08c379a00000000000000000000000000000000000000000000000000000000081526004016103a890612660565b60405180910390fd5b3373ffffffffffffffffffffffffffffffffffffffff16600160009054906101000a900473ffffffffffffffffffffffffffffffffffffffff1673ffffffffffffffffffffffffffffffffffffffff16636352211e866040518263ffffffff1660e01b815260040161042391906120fe565b60206040518083038186803b15801561043b57600080fd5b505afa15801561044f573d6000803e3d6000fd5b505050506040513d601f19601f820116820180604052508101906104739190612695565b73ffffffffffffffffffffffffffffffffffffffff16146104c9576040517f08c379a00000000000000000000000000000000000000000000000000000000081526004016104c09061270e565b60405180910390fd5b3073ffffffffffffffffffffffffffffffffffffffff16600160009054906101000a900473ffffffffffffffffffffffffffffffffffffffff1673ffffffffffffffffffffffffffffffffffffffff1663081812fc866040518263ffffffff1660e01b815260040161053b91906120fe565b60206040518083038186803b15801561055357600080fd5b505afa158015610567573d6000803e3d6000fd5b505050506040513d601f19601f8201168201806040525081019061058b9190612695565b73ffffffffffffffffffffffffffffffffffffffff16146105e1576040517f08c379a00000000000000000000000000000000000000000000000000000000081526004016105d8906127a0565b60405180910390fd5b600160009054906101000a900473ffffffffffffffffffffffffffffffffffffffff1673ffffffffffffffffffffffffffffffffffffffff166342842e0e3330876040518463ffffffff1660e01b8152600401610640939291906127c0565b600060405180830381600087803b15801561065a57600080fd5b505af115801561066e573d6000803e3d6000fd5b5050505060006040518061016001604052803373ffffffffffffffffffffffffffffffffffffffff168152602001868152602001858152602001600073ffffffffffffffffffffffffffffffffffffffff168152602001858152602001600073ffffffffffffffffffffffffffffffffffffffff168152602001848152602001838152602001600015158152602001600115158152602001600280549050815250905060028190806001815401808255809150506001900390600052602060002090600a020160009091909190915060008201518160000160006101000a81548173ffffffffffffffffffffffffffffffffffffffff021916908373ffffffffffffffffffffffffffffffffffffffff160217905550602082015181600101556040820151816002015560608201518160030160006101000a81548173ffffffffffffffffffffffffffffffffffffffff021916908373ffffffffffffffffffffffffffffffffffffffff1602179055506080820151816004015560a08201518160050160006101000a81548173ffffffffffffffffffffffffffffffffffffffff021916908373ffffffffffffffffffffffffffffffffffffffff16021790555060c0820151816006015560e082015181600701556101008201518160080160006101000a81548160ff0219169083151502179055506101208201518160080160016101000a81548160ff021916908315150217905550610140820151816009015550505050505050565b606e81565b6108a7611d3b565b73ffffffffffffffffffffffffffffffffffffffff166108c5610ad8565b73ffffffffffffffffffffffffffffffffffffffff161461091b576040517f08c379a000000000000000000000000000000000000000000000000000000000815260040161091290612843565b60405180910390fd5b6109256000611d43565b565b61092f611e07565b6002828154811061094357610942612863565b5b90600052602060002090600a0201604051806101600160405290816000820160009054906101000a900473ffffffffffffffffffffffffffffffffffffffff1673ffffffffffffffffffffffffffffffffffffffff1673ffffffffffffffffffffffffffffffffffffffff16815260200160018201548152602001600282015481526020016003820160009054906101000a900473ffffffffffffffffffffffffffffffffffffffff1673ffffffffffffffffffffffffffffffffffffffff1673ffffffffffffffffffffffffffffffffffffffff168152602001600482015481526020016005820160009054906101000a900473ffffffffffffffffffffffffffffffffffffffff1673ffffffffffffffffffffffffffffffffffffffff1673ffffffffffffffffffffffffffffffffffffffff16815260200160068201548152602001600782015481526020016008820160009054906101000a900460ff161515151581526020016008820160019054906101000a900460ff161515151581526020016009820154815250509050919050565b60008060009054906101000a900473ffffffffffffffffffffffffffffffffffffffff16905090565b8060028181548110610b1657610b15612863565b5b90600052602060002090600a020160000160009054906101000a900473ffffffffffffffffffffffffffffffffffffffff1673ffffffffffffffffffffffffffffffffffffffff163373ffffffffffffffffffffffffffffffffffffffff161480610bb35750610b84610ad8565b73ffffffffffffffffffffffffffffffffffffffff163373ffffffffffffffffffffffffffffffffffffffff16145b610bf2576040517f08c379a0000000000000000000000000000000000000000000000000000000008152600401610be990612904565b60405180910390fd5b6000151560028381548110610c0a57610c09612863565b5b90600052602060002090600a020160080160009054906101000a900460ff16151514610c6b576040517f08c379a0000000000000000000000000000000000000000000000000000000008152600401610c6290612970565b60405180910390fd5b60028281548110610c7f57610c7e612863565b5b90600052602060002090600a020160080160019054906101000a900460ff16610cdd576040517f08c379a0000000000000000000000000000000000000000000000000000000008152600401610cd4906129dc565b60405180910390fd5b600160009054906101000a900473ffffffffffffffffffffffffffffffffffffffff1673ffffffffffffffffffffffffffffffffffffffff166342842e0e3060028581548110610d3057610d2f612863565b5b90600052602060002090600a020160000160009054906101000a900473ffffffffffffffffffffffffffffffffffffffff1660028681548110610d7657610d75612863565b5b90600052602060002090600a0201600101546040518463ffffffff1660e01b8152600401610da6939291906127c0565b600060405180830381600087803b158015610dc057600080fd5b505af1158015610dd4573d6000803e3d6000fd5b50505050600073ffffffffffffffffffffffffffffffffffffffff1660028381548110610e0457610e03612863565b5b90600052602060002090600a020160050160009054906101000a900473ffffffffffffffffffffffffffffffffffffffff1673ffffffffffffffffffffffffffffffffffffffff1614610f035760028281548110610e6557610e64612863565b5b90600052602060002090600a020160050160009054906101000a900473ffffffffffffffffffffffffffffffffffffffff1673ffffffffffffffffffffffffffffffffffffffff166108fc60028481548110610ec457610ec3612863565b5b90600052602060002090600a0201600401549081150290604051600060405180830381858888f19350505050158015610f01573d6000803e3d6000fd5b505b600160028381548110610f1957610f18612863565b5b90600052602060002090600a020160080160006101000a81548160ff021916908315150217905550600060028381548110610f5757610f56612863565b5b90600052602060002090600a020160080160016101000a81548160ff0219169083151502179055505050565b600381565b60606000805b600280549050811015610ffb5783151560028281548110610fb257610fb1612863565b5b90600052602060002090600a020160080160019054906101000a900460ff1615151415610fe8578180610fe490612a2b565b9250505b8080610ff390612a2b565b915050610f8e565b5060008167ffffffffffffffff81111561101857611017612a74565b5b60405190808252806020026020018201604052801561105157816020015b61103e611e07565b8152602001906001900390816110365790505b5090506000805b600280549050811015611285578515156002828154811061107c5761107b612863565b5b90600052602060002090600a020160080160019054906101000a900460ff161515141561127257600281815481106110b7576110b6612863565b5b90600052602060002090600a0201604051806101600160405290816000820160009054906101000a900473ffffffffffffffffffffffffffffffffffffffff1673ffffffffffffffffffffffffffffffffffffffff1673ffffffffffffffffffffffffffffffffffffffff16815260200160018201548152602001600282015481526020016003820160009054906101000a900473ffffffffffffffffffffffffffffffffffffffff1673ffffffffffffffffffffffffffffffffffffffff1673ffffffffffffffffffffffffffffffffffffffff168152602001600482015481526020016005820160009054906101000a900473ffffffffffffffffffffffffffffffffffffffff1673ffffffffffffffffffffffffffffffffffffffff1673ffffffffffffffffffffffffffffffffffffffff16815260200160068201548152602001600782015481526020016008820160009054906101000a900460ff161515151581526020016008820160019054906101000a900460ff1615151515815260200160098201548152505083838151811061125857611257612863565b5b6020026020010181905250818061126e90612a2b565b9250505b808061127d90612a2b565b915050611058565b50819350505050919050565b80600281815481106112a6576112a5612863565b5b90600052602060002090600a020160000160009054906101000a900473ffffffffffffffffffffffffffffffffffffffff1673ffffffffffffffffffffffffffffffffffffffff163373ffffffffffffffffffffffffffffffffffffffff1614806113435750611314610ad8565b73ffffffffffffffffffffffffffffffffffffffff163373ffffffffffffffffffffffffffffffffffffffff16145b611382576040517f08c379a000000000000000000000000000000000000000000000000000000000815260040161137990612904565b60405180910390fd5b600015156002838154811061139a57611399612863565b5b90600052602060002090600a020160080160009054906101000a900460ff161515146113fb576040517f08c379a00000000000000000000000000000000000000000000000000000000081526004016113f290612970565b60405180910390fd5b6002828154811061140f5761140e612863565b5b90600052602060002090600a020160080160019054906101000a900460ff1661146d576040517f08c379a0000000000000000000000000000000000000000000000000000000008152600401611464906129dc565b60405180910390fd5b600160009054906101000a900473ffffffffffffffffffffffffffffffffffffffff1673ffffffffffffffffffffffffffffffffffffffff166342842e0e30600285815481106114c0576114bf612863565b5b90600052602060002090600a020160050160009054906101000a900473ffffffffffffffffffffffffffffffffffffffff166002868154811061150657611505612863565b5b90600052602060002090600a0201600101546040518463ffffffff1660e01b8152600401611536939291906127c0565b600060405180830381600087803b15801561155057600080fd5b505af1158015611564573d6000803e3d6000fd5b5050505060006002838154811061157e5761157d612863565b5b90600052602060002090600a02016004015490506000600284815481106115a8576115a7612863565b5b90600052602060002090600a020160020154600285815481106115ce576115cd612863565b5b90600052602060002090600a0201600401546115ea9190612aa3565b9050600060646003836115fd9190612ad7565b6116079190612b60565b9050600081846116179190612aa3565b90506002868154811061162d5761162c612863565b5b90600052602060002090600a020160000160009054906101000a900473ffffffffffffffffffffffffffffffffffffffff1673ffffffffffffffffffffffffffffffffffffffff166108fc829081150290604051600060405180830381858888f193505050501580156116a4573d6000803e3d6000fd5b506001600287815481106116bb576116ba612863565b5b90600052602060002090600a020160080160006101000a81548160ff0219169083151502179055506000600287815481106116f9576116f8612863565b5b90600052602060002090600a020160080160016101000a81548160ff021916908315150217905550505050505050565b60006002828154811061173f5761173e612863565b5b90600052602060002090600a0201604051806101600160405290816000820160009054906101000a900473ffffffffffffffffffffffffffffffffffffffff1673ffffffffffffffffffffffffffffffffffffffff1673ffffffffffffffffffffffffffffffffffffffff16815260200160018201548152602001600282015481526020016003820160009054906101000a900473ffffffffffffffffffffffffffffffffffffffff1673ffffffffffffffffffffffffffffffffffffffff1673ffffffffffffffffffffffffffffffffffffffff168152602001600482015481526020016005820160009054906101000a900473ffffffffffffffffffffffffffffffffffffffff1673ffffffffffffffffffffffffffffffffffffffff1673ffffffffffffffffffffffffffffffffffffffff16815260200160068201548152602001600782015481526020016008820160009054906101000a900460ff161515151581526020016008820160019054906101000a900460ff1615151515815260200160098201548152505090508060c00151421015611916576040517f08c379a000000000000000000000000000000000000000000000000000000000815260040161190d90612bdd565b60405180910390fd5b60001515816101000151151514611962576040517f08c379a000000000000000000000000000000000000000000000000000000000815260040161195990612970565b60405180910390fd5b8061012001516119a7576040517f08c379a000000000000000000000000000000000000000000000000000000000815260040161199e906129dc565b60405180910390fd5b60008073ffffffffffffffffffffffffffffffffffffffff168260a0015173ffffffffffffffffffffffffffffffffffffffff1614611a02576064606e83608001516119f39190612ad7565b6119fd9190612b60565b611a08565b81604001515b905080341015611a4d576040517f08c379a0000000000000000000000000000000000000000000000000000000008152600401611a4490612c6f565b60405180910390fd5b3373ffffffffffffffffffffffffffffffffffffffff16826000015173ffffffffffffffffffffffffffffffffffffffff161415611ac0576040517f08c379a0000000000000000000000000000000000000000000000000000000008152600401611ab790612cdb565b60405180910390fd5b600073ffffffffffffffffffffffffffffffffffffffff168260a0015173ffffffffffffffffffffffffffffffffffffffff1614611b48578160a0015173ffffffffffffffffffffffffffffffffffffffff166108fc83608001519081150290604051600060405180830381858888f19350505050158015611b46573d6000803e3d6000fd5b505b8160a0015160028481548110611b6157611b60612863565b5b90600052602060002090600a020160030160006101000a81548173ffffffffffffffffffffffffffffffffffffffff021916908373ffffffffffffffffffffffffffffffffffffffff1602179055503360028481548110611bc557611bc4612863565b5b90600052602060002090600a020160050160006101000a81548173ffffffffffffffffffffffffffffffffffffffff021916908373ffffffffffffffffffffffffffffffffffffffff1602179055503460028481548110611c2957611c28612863565b5b90600052602060002090600a020160040181905550505050565b611c4b611d3b565b73ffffffffffffffffffffffffffffffffffffffff16611c69610ad8565b73ffffffffffffffffffffffffffffffffffffffff1614611cbf576040517f08c379a0000000000000000000000000000000000000000000000000000000008152600401611cb690612843565b60405180910390fd5b600073ffffffffffffffffffffffffffffffffffffffff168173ffffffffffffffffffffffffffffffffffffffff161415611d2f576040517f08c379a0000000000000000000000000000000000000000000000000000000008152600401611d2690612d6d565b60405180910390fd5b611d3881611d43565b50565b600033905090565b60008060009054906101000a900473ffffffffffffffffffffffffffffffffffffffff169050816000806101000a81548173ffffffffffffffffffffffffffffffffffffffff021916908373ffffffffffffffffffffffffffffffffffffffff1602179055508173ffffffffffffffffffffffffffffffffffffffff168173ffffffffffffffffffffffffffffffffffffffff167f8be0079c531659141344cd1fd0a4f28419497f9722a3daafe3b4186f6b6457e060405160405180910390a35050565b604051806101600160405280600073ffffffffffffffffffffffffffffffffffffffff1681526020016000815260200160008152602001600073ffffffffffffffffffffffffffffffffffffffff16815260200160008152602001600073ffffffffffffffffffffffffffffffffffffffff1681526020016000815260200160008152602001600015158152602001600015158152602001600081525090565b600080fd5b600080fd5b600073ffffffffffffffffffffffffffffffffffffffff82169050919050565b6000611edc82611eb1565b9050919050565b611eec81611ed1565b8114611ef757600080fd5b50565b600081359050611f0981611ee3565b92915050565b6000819050919050565b611f2281611f0f565b8114611f2d57600080fd5b50565b600081359050611f3f81611f19565b92915050565b600080fd5b600080fd5b600080fd5b60008083601f840112611f6a57611f69611f45565b5b8235905067ffffffffffffffff811115611f8757611f86611f4a565b5b602083019150836001820283011115611fa357611fa2611f4f565b5b9250929050565b600080600080600060808688031215611fc657611fc5611ea7565b5b6000611fd488828901611efa565b9550506020611fe588828901611efa565b9450506040611ff688828901611f30565b935050606086013567ffffffffffffffff81111561201757612016611eac565b5b61202388828901611f54565b92509250509295509295909350565b60007fffffffff0000000000000000000000000000000000000000000000000000000082169050919050565b61206781612032565b82525050565b6000602082019050612082600083018461205e565b92915050565b600080600080608085870312156120a2576120a1611ea7565b5b60006120b087828801611f30565b94505060206120c187828801611f30565b93505060406120d287828801611f30565b92505060606120e387828801611f30565b91505092959194509250565b6120f881611f0f565b82525050565b600060208201905061211360008301846120ef565b92915050565b60006020828403121561212f5761212e611ea7565b5b600061213d84828501611f30565b91505092915050565b61214f81611ed1565b82525050565b61215e81611f0f565b82525050565b60008115159050919050565b61217981612164565b82525050565b610160820160008201516121966000850182612146565b5060208201516121a96020850182612155565b5060408201516121bc6040850182612155565b5060608201516121cf6060850182612146565b5060808201516121e26080850182612155565b5060a08201516121f560a0850182612146565b5060c082015161220860c0850182612155565b5060e082015161221b60e0850182612155565b50610100820151612230610100850182612170565b50610120820151612245610120850182612170565b5061014082015161225a610140850182612155565b50505050565b600061016082019050612276600083018461217f565b92915050565b61228581611ed1565b82525050565b60006020820190506122a0600083018461227c565b92915050565b6122af81612164565b81146122ba57600080fd5b50565b6000813590506122cc816122a6565b92915050565b6000602082840312156122e8576122e7611ea7565b5b60006122f6848285016122bd565b91505092915050565b600081519050919050565b600082825260208201905092915050565b6000819050602082019050919050565b610160820160008201516123426000850182612146565b5060208201516123556020850182612155565b5060408201516123686040850182612155565b50606082015161237b6060850182612146565b50608082015161238e6080850182612155565b5060a08201516123a160a0850182612146565b5060c08201516123b460c0850182612155565b5060e08201516123c760e0850182612155565b506101008201516123dc610100850182612170565b506101208201516123f1610120850182612170565b50610140820151612406610140850182612155565b50505050565b6000612418838361232b565b6101608301905092915050565b6000602082019050919050565b600061243d826122ff565b612447818561230a565b93506124528361231b565b8060005b8381101561248357815161246a888261240c565b975061247583612425565b925050600181019050612456565b5085935050505092915050565b600060208201905081810360008301526124aa8184612432565b905092915050565b6000602082840312156124c8576124c7611ea7565b5b60006124d684828501611efa565b91505092915050565b600082825260208201905092915050565b7f41756374696f6e2063616e206e6f742073746172740000000000000000000000600082015250565b60006125266015836124df565b9150612531826124f0565b602082019050919050565b6000602082019050818103600083015261255581612519565b9050919050565b7f41756374696f6e2063616e206e6f7420656e64206265666f726520697420737460008201527f6172747300000000000000000000000000000000000000000000000000000000602082015250565b60006125b86024836124df565b91506125c38261255c565b604082019050919050565b600060208201905081810360008301526125e7816125ab565b9050919050565b7f496e697469616c207072696365206d757374206265206772656174657220746860008201527f616e203000000000000000000000000000000000000000000000000000000000602082015250565b600061264a6024836124df565b9150612655826125ee565b604082019050919050565b600060208201905081810360008301526126798161263d565b9050919050565b60008151905061268f81611ee3565b92915050565b6000602082840312156126ab576126aa611ea7565b5b60006126b984828501612680565b91505092915050565b7f4d757374207374616b6520796f7572206f776e20746f6b656e00000000000000600082015250565b60006126f86019836124df565b9150612703826126c2565b602082019050919050565b60006020820190508181036000830152612727816126eb565b9050919050565b7f5468697320636f6e7472616374206d75737420626520617070726f766564207460008201527f6f207472616e736665722074686520746f6b656e000000000000000000000000602082015250565b600061278a6034836124df565b91506127958261272e565b604082019050919050565b600060208201905081810360008301526127b98161277d565b9050919050565b60006060820190506127d5600083018661227c565b6127e2602083018561227c565b6127ef60408301846120ef565b949350505050565b7f4f776e61626c653a2063616c6c6572206973206e6f7420746865206f776e6572600082015250565b600061282d6020836124df565b9150612838826127f7565b602082019050919050565b6000602082019050818103600083015261285c81612820565b9050919050565b7f4e487b7100000000000000000000000000000000000000000000000000000000600052603260045260246000fd5b7f4f6e6c792061756374696f6e656572206f72206f776e65722063616e2070657260008201527f666f726d207468697320616374696f6e00000000000000000000000000000000602082015250565b60006128ee6030836124df565b91506128f982612892565b604082019050919050565b6000602082019050818103600083015261291d816128e1565b9050919050565b7f41756374696f6e20697320616c726561647920636f6d706c6574656400000000600082015250565b600061295a601c836124df565b915061296582612924565b602082019050919050565b600060208201905081810360008301526129898161294d565b9050919050565b7f41756374696f6e206973206e6f74206163746976650000000000000000000000600082015250565b60006129c66015836124df565b91506129d182612990565b602082019050919050565b600060208201905081810360008301526129f5816129b9565b9050919050565b7f4e487b7100000000000000000000000000000000000000000000000000000000600052601160045260246000fd5b6000612a3682611f0f565b91507fffffffffffffffffffffffffffffffffffffffffffffffffffffffffffffffff821415612a6957612a686129fc565b5b600182019050919050565b7f4e487b7100000000000000000000000000000000000000000000000000000000600052604160045260246000fd5b6000612aae82611f0f565b9150612ab983611f0f565b925082821015612acc57612acb6129fc565b5b828203905092915050565b6000612ae282611f0f565b9150612aed83611f0f565b9250817fffffffffffffffffffffffffffffffffffffffffffffffffffffffffffffffff0483118215151615612b2657612b256129fc565b5b828202905092915050565b7f4e487b7100000000000000000000000000000000000000000000000000000000600052601260045260246000fd5b6000612b6b82611f0f565b9150612b7683611f0f565b925082612b8657612b85612b31565b5b828204905092915050565b7f41756374696f6e20686173206e6f742073746172746564000000000000000000600082015250565b6000612bc76017836124df565b9150612bd282612b91565b602082019050919050565b60006020820190508181036000830152612bf681612bba565b9050919050565b7f426964207072696365206d7573742062652067726561746572207468616e207460008201527f6865206d696e696d756d20707269636500000000000000000000000000000000602082015250565b6000612c596030836124df565b9150612c6482612bfd565b604082019050919050565b60006020820190508181036000830152612c8881612c4c565b9050919050565b7f43616e6e6f7420626964206f6e20796f7572206f776e2061756374696f6e0000600082015250565b6000612cc5601e836124df565b9150612cd082612c8f565b602082019050919050565b60006020820190508181036000830152612cf481612cb8565b9050919050565b7f4f776e61626c653a206e6577206f776e657220697320746865207a65726f206160008201527f6464726573730000000000000000000000000000000000000000000000000000602082015250565b6000612d576026836124df565b9150612d6282612cfb565b604082019050919050565b60006020820190508181036000830152612d8681612d4a565b905091905056fea264697066735822122018c7c9b19837add75a5bfe480ef0e21a323e9aceaacaad026122746538c7b8c064736f6c63430008090033",
  "linkReferences": {},
  "deployedLinkReferences": {}
}