{
  "_format": "hh-sol-artifact-1",
  "contractName": "MonoNFT",
  "sourceName": "contracts/NFT.sol",
  "abi": [
    {
      "inputs": [
        {
          "internalType": "address",
          "name": "_marketplaceAddress",
          "type": "address"
        }
      ],
      "stateMutability": "nonpayable",
      "type": "constructor"
    },
    {
      "anonymous": false,
      "inputs": [
        {
          "indexed": true,
          "internalType": "address",
          "name": "owner",
          "type": "address"
        },
        {
          "indexed": true,
          "internalType": "address",
          "name": "approved",
          "type": "address"
        },
        {
          "indexed": true,
          "internalType": "uint256",
          "name": "tokenId",
          "type": "uint256"
        }
      ],
      "name": "Approval",
      "type": "event"
    },
    {
      "anonymous": false,
      "inputs": [
        {
          "indexed": true,
          "internalType": "address",
          "name": "owner",
          "type": "address"
        },
        {
          "indexed": true,
          "internalType": "address",
          "name": "operator",
          "type": "address"
        },
        {
          "indexed": false,
          "internalType": "bool",
          "name": "approved",
          "type": "bool"
        }
      ],
      "name": "ApprovalForAll",
      "type": "event"
    },
    {
      "anonymous": false,
      "inputs": [
        {
          "indexed": true,
          "internalType": "uint256",
          "name": "tokenId",
          "type": "uint256"
        },
        {
          "indexed": false,
          "internalType": "string",
          "name": "tokenURI",
          "type": "string"
        },
        {
          "indexed": false,
          "internalType": "address",
          "name": "marketplaceAddress",
          "type": "address"
        }
      ],
      "name": "TokenMinted",
      "type": "event"
    },
    {
      "anonymous": false,
      "inputs": [
        {
          "indexed": true,
          "internalType": "address",
          "name": "from",
          "type": "address"
        },
        {
          "indexed": true,
          "internalType": "address",
          "name": "to",
          "type": "address"
        },
        {
          "indexed": true,
          "internalType": "uint256",
          "name": "tokenId",
          "type": "uint256"
        }
      ],
      "name": "Transfer",
      "type": "event"
    },
    {
      "inputs": [
        {
          "internalType": "address",
          "name": "to",
          "type": "address"
        },
        {
          "internalType": "uint256",
          "name": "tokenId",
          "type": "uint256"
        }
      ],
      "name": "approve",
      "outputs": [],
      "stateMutability": "nonpayable",
      "type": "function"
    },
    {
      "inputs": [
        {
          "internalType": "address",
          "name": "owner",
          "type": "address"
        }
      ],
      "name": "balanceOf",
      "outputs": [
        {
          "internalType": "uint256",
          "name": "",
          "type": "uint256"
        }
      ],
      "stateMutability": "view",
      "type": "function"
    },
    {
      "inputs": [
        {
          "internalType": "uint256",
          "name": "tokenId",
          "type": "uint256"
        }
      ],
      "name": "getApproved",
      "outputs": [
        {
          "internalType": "address",
          "name": "",
          "type": "address"
        }
      ],
      "stateMutability": "view",
      "type": "function"
    },
    {
      "inputs": [
        {
          "internalType": "uint256",
          "name": "tokenId",
          "type": "uint256"
        }
      ],
      "name": "getTokenCreatorById",
      "outputs": [
        {
          "internalType": "address",
          "name": "",
          "type": "address"
        }
      ],
      "stateMutability": "view",
      "type": "function"
    },
    {
      "inputs": [
        {
          "internalType": "address",
          "name": "to",
          "type": "address"
        }
      ],
      "name": "giveAway",
      "outputs": [],
      "stateMutability": "nonpayable",
      "type": "function"
    },
    {
      "inputs": [
        {
          "internalType": "address",
          "name": "owner",
          "type": "address"
        },
        {
          "internalType": "address",
          "name": "operator",
          "type": "address"
        }
      ],
      "name": "isApprovedForAll",
      "outputs": [
        {
          "internalType": "bool",
          "name": "",
          "type": "bool"
        }
      ],
      "stateMutability": "view",
      "type": "function"
    },
    {
      "inputs": [],
      "name": "marketplaceAddress",
      "outputs": [
        {
          "internalType": "address",
          "name": "",
          "type": "address"
        }
      ],
      "stateMutability": "view",
      "type": "function"
    },
    {
      "inputs": [
        {
          "internalType": "string",
          "name": "tokenUri",
          "type": "string"
        }
      ],
      "name": "mintToken",
      "outputs": [
        {
          "internalType": "uint256",
          "name": "",
          "type": "uint256"
        }
      ],
      "stateMutability": "nonpayable",
      "type": "function"
    },
    {
      "inputs": [],
      "name": "name",
      "outputs": [
        {
          "internalType": "string",
          "name": "",
          "type": "string"
        }
      ],
      "stateMutability": "view",
      "type": "function"
    },
    {
      "inputs": [
        {
          "internalType": "uint256",
          "name": "tokenId",
          "type": "uint256"
        }
      ],
      "name": "ownerOf",
      "outputs": [
        {
          "internalType": "address",
          "name": "",
          "type": "address"
        }
      ],
      "stateMutability": "view",
      "type": "function"
    },
    {
      "inputs": [
        {
          "internalType": "address",
          "name": "from",
          "type": "address"
        },
        {
          "internalType": "address",
          "name": "to",
          "type": "address"
        },
        {
          "internalType": "uint256",
          "name": "tokenId",
          "type": "uint256"
        }
      ],
      "name": "safeTransferFrom",
      "outputs": [],
      "stateMutability": "nonpayable",
      "type": "function"
    },
    {
      "inputs": [
        {
          "internalType": "address",
          "name": "from",
          "type": "address"
        },
        {
          "internalType": "address",
          "name": "to",
          "type": "address"
        },
        {
          "internalType": "uint256",
          "name": "tokenId",
          "type": "uint256"
        },
        {
          "internalType": "bytes",
          "name": "_data",
          "type": "bytes"
        }
      ],
      "name": "safeTransferFrom",
      "outputs": [],
      "stateMutability": "nonpayable",
      "type": "function"
    },
    {
      "inputs": [
        {
          "internalType": "address",
          "name": "operator",
          "type": "address"
        },
        {
          "internalType": "bool",
          "name": "approved",
          "type": "bool"
        }
      ],
      "name": "setApprovalForAll",
      "outputs": [],
      "stateMutability": "nonpayable",
      "type": "function"
    },
    {
      "inputs": [
        {
          "internalType": "bytes4",
          "name": "interfaceId",
          "type": "bytes4"
        }
      ],
      "name": "supportsInterface",
      "outputs": [
        {
          "internalType": "bool",
          "name": "",
          "type": "bool"
        }
      ],
      "stateMutability": "view",
      "type": "function"
    },
    {
      "inputs": [],
      "name": "symbol",
      "outputs": [
        {
          "internalType": "string",
          "name": "",
          "type": "string"
        }
      ],
      "stateMutability": "view",
      "type": "function"
    },
    {
      "inputs": [
        {
          "internalType": "uint256",
          "name": "index",
          "type": "uint256"
        }
      ],
      "name": "tokenByIndex",
      "outputs": [
        {
          "internalType": "uint256",
          "name": "",
          "type": "uint256"
        }
      ],
      "stateMutability": "view",
      "type": "function"
    },
    {
      "inputs": [
        {
          "internalType": "address",
          "name": "owner",
          "type": "address"
        },
        {
          "internalType": "uint256",
          "name": "index",
          "type": "uint256"
        }
      ],
      "name": "tokenOfOwnerByIndex",
      "outputs": [
        {
          "internalType": "uint256",
          "name": "",
          "type": "uint256"
        }
      ],
      "stateMutability": "view",
      "type": "function"
    },
    {
      "inputs": [
        {
          "internalType": "uint256",
          "name": "tokenId",
          "type": "uint256"
        }
      ],
      "name": "tokenURI",
      "outputs": [
        {
          "internalType": "string",
          "name": "",
          "type": "string"
        }
      ],
      "stateMutability": "view",
      "type": "function"
    },
    {
      "inputs": [],
      "name": "totalSupply",
      "outputs": [
        {
          "internalType": "uint256",
          "name": "",
          "type": "uint256"
        }
      ],
      "stateMutability": "view",
      "type": "function"
    },
    {
      "inputs": [
        {
          "internalType": "address",
          "name": "from",
          "type": "address"
        },
        {
          "internalType": "address",
          "name": "to",
          "type": "address"
        },
        {
          "internalType": "uint256",
          "name": "tokenId",
          "type": "uint256"
        }
      ],
      "name": "transferFrom",
      "outputs": [],
      "stateMutability": "nonpayable",
      "type": "function"
    }
  ],
  "bytecode": "0x60806040523480156200001157600080fd5b5060405162003aba38038062003aba833981810160405281019062000037919062000239565b6040518060400160405280600781526020017f4d6f6e6f4e4654000000000000000000000000000000000000000000000000008152506040518060400160405280600481526020017f4d4e4654000000000000000000000000000000000000000000000000000000008152508160009080519060200190620000bb9291906200011f565b508060019080519060200190620000d49291906200011f565b50505080600b60006101000a81548173ffffffffffffffffffffffffffffffffffffffff021916908373ffffffffffffffffffffffffffffffffffffffff16021790555050620002d0565b8280546200012d906200029a565b90600052602060002090601f0160209004810192826200015157600085556200019d565b82601f106200016c57805160ff19168380011785556200019d565b828001600101855582156200019d579182015b828111156200019c5782518255916020019190600101906200017f565b5b509050620001ac9190620001b0565b5090565b5b80821115620001cb576000816000905550600101620001b1565b5090565b600080fd5b600073ffffffffffffffffffffffffffffffffffffffff82169050919050565b60006200020182620001d4565b9050919050565b6200021381620001f4565b81146200021f57600080fd5b50565b600081519050620002338162000208565b92915050565b600060208284031215620002525762000251620001cf565b5b6000620002628482850162000222565b91505092915050565b7f4e487b7100000000000000000000000000000000000000000000000000000000600052602260045260246000fd5b60006002820490506001821680620002b357607f821691505b60208210811415620002ca57620002c96200026b565b5b50919050565b6137da80620002e06000396000f3fe608060405234801561001057600080fd5b506004361061012c5760003560e01c80636352211e116100ad578063a22cb46511610071578063a22cb4651461037b578063b88d4fde14610397578063c87b56dd146103b3578063daa17f49146103e3578063e985e9c5146104015761012c565b80636352211e146102b157806370a08231146102e1578063867d33971461031157806395d89b41146103415780639e2407851461035f5761012c565b806323b872dd116100f457806323b872dd146101e95780632f745c591461020557806333eba49a1461023557806342842e0e146102655780634f6ccce7146102815761012c565b806301ffc9a71461013157806306fdde0314610161578063081812fc1461017f578063095ea7b3146101af57806318160ddd146101cb575b600080fd5b61014b6004803603810190610146919061234f565b610431565b6040516101589190612397565b60405180910390f35b610169610443565b604051610176919061244b565b60405180910390f35b610199600480360381019061019491906124a3565b6104d5565b6040516101a69190612511565b60405180910390f35b6101c960048036038101906101c49190612558565b61055a565b005b6101d3610672565b6040516101e091906125a7565b60405180910390f35b61020360048036038101906101fe91906125c2565b61067f565b005b61021f600480360381019061021a9190612558565b6106df565b60405161022c91906125a7565b60405180910390f35b61024f600480360381019061024a919061274a565b610784565b60405161025c91906125a7565b60405180910390f35b61027f600480360381019061027a91906125c2565b610896565b005b61029b600480360381019061029691906124a3565b6108b6565b6040516102a891906125a7565b60405180910390f35b6102cb60048036038101906102c691906124a3565b610927565b6040516102d89190612511565b60405180910390f35b6102fb60048036038101906102f69190612793565b6109d9565b60405161030891906125a7565b60405180910390f35b61032b600480360381019061032691906124a3565b610a91565b6040516103389190612511565b60405180910390f35b610349610ace565b604051610356919061244b565b60405180910390f35b61037960048036038101906103749190612793565b610b60565b005b610395600480360381019061039091906127ec565b610c15565b005b6103b160048036038101906103ac91906128cd565b610c2b565b005b6103cd60048036038101906103c891906124a3565b610c8d565b6040516103da919061244b565b60405180910390f35b6103eb610c9f565b6040516103f89190612511565b60405180910390f35b61041b60048036038101906104169190612950565b610cc5565b6040516104289190612397565b60405180910390f35b600061043c82610d59565b9050919050565b606060008054610452906129bf565b80601f016020809104026020016040519081016040528092919081815260200182805461047e906129bf565b80156104cb5780601f106104a0576101008083540402835291602001916104cb565b820191906000526020600020905b8154815290600101906020018083116104ae57829003601f168201915b5050505050905090565b60006104e082610dd3565b61051f576040517f08c379a000000000000000000000000000000000000000000000000000000000815260040161051690612a63565b60405180910390fd5b6004600083815260200190815260200160002060009054906101000a900473ffffffffffffffffffffffffffffffffffffffff169050919050565b600061056582610927565b90508073ffffffffffffffffffffffffffffffffffffffff168373ffffffffffffffffffffffffffffffffffffffff1614156105d6576040517f08c379a00000000000000000000000000000000000000000000000000000000081526004016105cd90612af5565b60405180910390fd5b8073ffffffffffffffffffffffffffffffffffffffff166105f5610e3f565b73ffffffffffffffffffffffffffffffffffffffff16148061062457506106238161061e610e3f565b610cc5565b5b610663576040517f08c379a000000000000000000000000000000000000000000000000000000000815260040161065a90612b87565b60405180910390fd5b61066d8383610e47565b505050565b6000600980549050905090565b61069061068a610e3f565b82610f00565b6106cf576040517f08c379a00000000000000000000000000000000000000000000000000000000081526004016106c690612c19565b60405180910390fd5b6106da838383610fde565b505050565b60006106ea836109d9565b821061072b576040517f08c379a000000000000000000000000000000000000000000000000000000000815260040161072290612cab565b60405180910390fd5b600760008473ffffffffffffffffffffffffffffffffffffffff1673ffffffffffffffffffffffffffffffffffffffff168152602001908152602001600020600083815260200190815260200160002054905092915050565b6000610790600d61123a565b600061079c600d611250565b90506107a8338261125e565b33600c600083815260200190815260200160002060006101000a81548173ffffffffffffffffffffffffffffffffffffffff021916908373ffffffffffffffffffffffffffffffffffffffff160217905550610804818461142c565b610831600b60009054906101000a900473ffffffffffffffffffffffffffffffffffffffff166001610c15565b807f9ef9d09a98563c827f651a028105395cc17f94ef23eb26b70d241439386a62f484600b60009054906101000a900473ffffffffffffffffffffffffffffffffffffffff16604051610885929190612ccb565b60405180910390a280915050919050565b6108b183838360405180602001604052806000815250610c2b565b505050565b60006108c0610672565b8210610901576040517f08c379a00000000000000000000000000000000000000000000000000000000081526004016108f890612d6d565b60405180910390fd5b6009828154811061091557610914612d8d565b5b90600052602060002001549050919050565b6000806002600084815260200190815260200160002060009054906101000a900473ffffffffffffffffffffffffffffffffffffffff169050600073ffffffffffffffffffffffffffffffffffffffff168173ffffffffffffffffffffffffffffffffffffffff1614156109d0576040517f08c379a00000000000000000000000000000000000000000000000000000000081526004016109c790612e2e565b60405180910390fd5b80915050919050565b60008073ffffffffffffffffffffffffffffffffffffffff168273ffffffffffffffffffffffffffffffffffffffff161415610a4a576040517f08c379a0000000000000000000000000000000000000000000000000000000008152600401610a4190612ec0565b60405180910390fd5b600360008373ffffffffffffffffffffffffffffffffffffffff1673ffffffffffffffffffffffffffffffffffffffff168152602001908152602001600020549050919050565b6000600c600083815260200190815260200160002060009054906101000a900473ffffffffffffffffffffffffffffffffffffffff169050919050565b606060018054610add906129bf565b80601f0160208091040260200160405190810160405280929190818152602001828054610b09906129bf565b8015610b565780601f10610b2b57610100808354040283529160200191610b56565b820191906000526020600020905b815481529060010190602001808311610b3957829003601f168201915b5050505050905090565b610b6a600d61123a565b6000610b76600d611250565b9050610b8282826114a0565b610ba4816040518060600160405280603f8152602001613766603f913961142c565b610bd1600b60009054906101000a900473ffffffffffffffffffffffffffffffffffffffff166001610c15565b610c116040518060400160405280601581526020017f4d696e74656420746f6b656e20257320746f202573000000000000000000000081525082846114be565b5050565b610c27610c20610e3f565b838361155d565b5050565b610c3c610c36610e3f565b83610f00565b610c7b576040517f08c379a0000000000000000000000000000000000000000000000000000000008152600401610c7290612c19565b60405180910390fd5b610c87848484846116ca565b50505050565b6060610c9882611726565b9050919050565b600b60009054906101000a900473ffffffffffffffffffffffffffffffffffffffff1681565b6000600560008473ffffffffffffffffffffffffffffffffffffffff1673ffffffffffffffffffffffffffffffffffffffff16815260200190815260200160002060008373ffffffffffffffffffffffffffffffffffffffff1673ffffffffffffffffffffffffffffffffffffffff16815260200190815260200160002060009054906101000a900460ff16905092915050565b60007f780e9d63000000000000000000000000000000000000000000000000000000007bffffffffffffffffffffffffffffffffffffffffffffffffffffffff1916827bffffffffffffffffffffffffffffffffffffffffffffffffffffffff19161480610dcc5750610dcb82611878565b5b9050919050565b60008073ffffffffffffffffffffffffffffffffffffffff166002600084815260200190815260200160002060009054906101000a900473ffffffffffffffffffffffffffffffffffffffff1673ffffffffffffffffffffffffffffffffffffffff1614159050919050565b600033905090565b816004600083815260200190815260200160002060006101000a81548173ffffffffffffffffffffffffffffffffffffffff021916908373ffffffffffffffffffffffffffffffffffffffff160217905550808273ffffffffffffffffffffffffffffffffffffffff16610eba83610927565b73ffffffffffffffffffffffffffffffffffffffff167f8c5be1e5ebec7d5bd14f71427d1e84f3dd0314c0f7b2291e5b200ac8c7c3b92560405160405180910390a45050565b6000610f0b82610dd3565b610f4a576040517f08c379a0000000000000000000000000000000000000000000000000000000008152600401610f4190612f52565b60405180910390fd5b6000610f5583610927565b90508073ffffffffffffffffffffffffffffffffffffffff168473ffffffffffffffffffffffffffffffffffffffff161480610fc457508373ffffffffffffffffffffffffffffffffffffffff16610fac846104d5565b73ffffffffffffffffffffffffffffffffffffffff16145b80610fd55750610fd48185610cc5565b5b91505092915050565b8273ffffffffffffffffffffffffffffffffffffffff16610ffe82610927565b73ffffffffffffffffffffffffffffffffffffffff1614611054576040517f08c379a000000000000000000000000000000000000000000000000000000000815260040161104b90612fe4565b60405180910390fd5b600073ffffffffffffffffffffffffffffffffffffffff168273ffffffffffffffffffffffffffffffffffffffff1614156110c4576040517f08c379a00000000000000000000000000000000000000000000000000000000081526004016110bb90613076565b60405180910390fd5b6110cf83838361195a565b6110da600082610e47565b6001600360008573ffffffffffffffffffffffffffffffffffffffff1673ffffffffffffffffffffffffffffffffffffffff168152602001908152602001600020600082825461112a91906130c5565b925050819055506001600360008473ffffffffffffffffffffffffffffffffffffffff1673ffffffffffffffffffffffffffffffffffffffff168152602001908152602001600020600082825461118191906130f9565b92505081905550816002600083815260200190815260200160002060006101000a81548173ffffffffffffffffffffffffffffffffffffffff021916908373ffffffffffffffffffffffffffffffffffffffff160217905550808273ffffffffffffffffffffffffffffffffffffffff168473ffffffffffffffffffffffffffffffffffffffff167fddf252ad1be2c89b69c2b068fc378daa952ba7f163c4a11628f55a4df523b3ef60405160405180910390a4505050565b6001816000016000828254019250508190555050565b600081600001549050919050565b600073ffffffffffffffffffffffffffffffffffffffff168273ffffffffffffffffffffffffffffffffffffffff1614156112ce576040517f08c379a00000000000000000000000000000000000000000000000000000000081526004016112c59061319b565b60405180910390fd5b6112d781610dd3565b15611317576040517f08c379a000000000000000000000000000000000000000000000000000000000815260040161130e90613207565b60405180910390fd5b6113236000838361195a565b6001600360008473ffffffffffffffffffffffffffffffffffffffff1673ffffffffffffffffffffffffffffffffffffffff168152602001908152602001600020600082825461137391906130f9565b92505081905550816002600083815260200190815260200160002060006101000a81548173ffffffffffffffffffffffffffffffffffffffff021916908373ffffffffffffffffffffffffffffffffffffffff160217905550808273ffffffffffffffffffffffffffffffffffffffff16600073ffffffffffffffffffffffffffffffffffffffff167fddf252ad1be2c89b69c2b068fc378daa952ba7f163c4a11628f55a4df523b3ef60405160405180910390a45050565b61143582610dd3565b611474576040517f08c379a000000000000000000000000000000000000000000000000000000000815260040161146b90613299565b60405180910390fd5b8060066000848152602001908152602001600020908051906020019061149b929190612240565b505050565b6114ba82826040518060200160405280600081525061196a565b5050565b6115588383836040516024016114d6939291906132b9565b6040516020818303038152906040527f1c7ec448000000000000000000000000000000000000000000000000000000007bffffffffffffffffffffffffffffffffffffffffffffffffffffffff19166020820180517bffffffffffffffffffffffffffffffffffffffffffffffffffffffff83818316178352505050506119c5565b505050565b8173ffffffffffffffffffffffffffffffffffffffff168373ffffffffffffffffffffffffffffffffffffffff1614156115cc576040517f08c379a00000000000000000000000000000000000000000000000000000000081526004016115c390613343565b60405180910390fd5b80600560008573ffffffffffffffffffffffffffffffffffffffff1673ffffffffffffffffffffffffffffffffffffffff16815260200190815260200160002060008473ffffffffffffffffffffffffffffffffffffffff1673ffffffffffffffffffffffffffffffffffffffff16815260200190815260200160002060006101000a81548160ff0219169083151502179055508173ffffffffffffffffffffffffffffffffffffffff168373ffffffffffffffffffffffffffffffffffffffff167f17307eab39ab6107e8899845ad3d59bd9653f200f220920489ca2b5937696c31836040516116bd9190612397565b60405180910390a3505050565b6116d5848484610fde565b6116e1848484846119ee565b611720576040517f08c379a0000000000000000000000000000000000000000000000000000000008152600401611717906133d5565b60405180910390fd5b50505050565b606061173182610dd3565b611770576040517f08c379a000000000000000000000000000000000000000000000000000000000815260040161176790613467565b60405180910390fd5b6000600660008481526020019081526020016000208054611790906129bf565b80601f01602080910402602001604051908101604052809291908181526020018280546117bc906129bf565b80156118095780601f106117de57610100808354040283529160200191611809565b820191906000526020600020905b8154815290600101906020018083116117ec57829003601f168201915b50505050509050600061181a611b85565b9050600081511415611830578192505050611873565b60008251111561186557808260405160200161184d9291906134c3565b60405160208183030381529060405292505050611873565b61186e84611b9c565b925050505b919050565b60007f80ac58cd000000000000000000000000000000000000000000000000000000007bffffffffffffffffffffffffffffffffffffffffffffffffffffffff1916827bffffffffffffffffffffffffffffffffffffffffffffffffffffffff1916148061194357507f5b5e139f000000000000000000000000000000000000000000000000000000007bffffffffffffffffffffffffffffffffffffffffffffffffffffffff1916827bffffffffffffffffffffffffffffffffffffffffffffffffffffffff1916145b80611953575061195282611c43565b5b9050919050565b611965838383611cad565b505050565b611974838361125e565b61198160008484846119ee565b6119c0576040517f08c379a00000000000000000000000000000000000000000000000000000000081526004016119b7906133d5565b60405180910390fd5b505050565b60008151905060006a636f6e736f6c652e6c6f679050602083016000808483855afa5050505050565b6000611a0f8473ffffffffffffffffffffffffffffffffffffffff16611dc1565b15611b78578373ffffffffffffffffffffffffffffffffffffffff1663150b7a02611a38610e3f565b8786866040518563ffffffff1660e01b8152600401611a5a949392919061353c565b602060405180830381600087803b158015611a7457600080fd5b505af1925050508015611aa557506040513d601f19601f82011682018060405250810190611aa2919061359d565b60015b611b28573d8060008114611ad5576040519150601f19603f3d011682016040523d82523d6000602084013e611ada565b606091505b50600081511415611b20576040517f08c379a0000000000000000000000000000000000000000000000000000000008152600401611b17906133d5565b60405180910390fd5b805181602001fd5b63150b7a0260e01b7bffffffffffffffffffffffffffffffffffffffffffffffffffffffff1916817bffffffffffffffffffffffffffffffffffffffffffffffffffffffff191614915050611b7d565b600190505b949350505050565b606060405180602001604052806000815250905090565b6060611ba782610dd3565b611be6576040517f08c379a0000000000000000000000000000000000000000000000000000000008152600401611bdd9061363c565b60405180910390fd5b6000611bf0611b85565b90506000815111611c105760405180602001604052806000815250611c3b565b80611c1a84611dd4565b604051602001611c2b9291906134c3565b6040516020818303038152906040525b915050919050565b60007f01ffc9a7000000000000000000000000000000000000000000000000000000007bffffffffffffffffffffffffffffffffffffffffffffffffffffffff1916827bffffffffffffffffffffffffffffffffffffffffffffffffffffffff1916149050919050565b611cb8838383611f35565b600073ffffffffffffffffffffffffffffffffffffffff168373ffffffffffffffffffffffffffffffffffffffff161415611cfb57611cf681611f3a565b611d3a565b8173ffffffffffffffffffffffffffffffffffffffff168373ffffffffffffffffffffffffffffffffffffffff1614611d3957611d388382611f83565b5b5b600073ffffffffffffffffffffffffffffffffffffffff168273ffffffffffffffffffffffffffffffffffffffff161415611d7d57611d78816120f0565b611dbc565b8273ffffffffffffffffffffffffffffffffffffffff168273ffffffffffffffffffffffffffffffffffffffff1614611dbb57611dba82826121c1565b5b5b505050565b600080823b905060008111915050919050565b60606000821415611e1c576040518060400160405280600181526020017f30000000000000000000000000000000000000000000000000000000000000008152509050611f30565b600082905060005b60008214611e4e578080611e379061365c565b915050600a82611e4791906136d4565b9150611e24565b60008167ffffffffffffffff811115611e6a57611e6961261f565b5b6040519080825280601f01601f191660200182016040528015611e9c5781602001600182028036833780820191505090505b5090505b60008514611f2957600182611eb591906130c5565b9150600a85611ec49190613705565b6030611ed091906130f9565b60f81b818381518110611ee657611ee5612d8d565b5b60200101907effffffffffffffffffffffffffffffffffffffffffffffffffffffffffffff1916908160001a905350600a85611f2291906136d4565b9450611ea0565b8093505050505b919050565b505050565b600980549050600a600083815260200190815260200160002081905550600981908060018154018082558091505060019003906000526020600020016000909190919091505550565b60006001611f90846109d9565b611f9a91906130c5565b905060006008600084815260200190815260200160002054905081811461207f576000600760008673ffffffffffffffffffffffffffffffffffffffff1673ffffffffffffffffffffffffffffffffffffffff168152602001908152602001600020600084815260200190815260200160002054905080600760008773ffffffffffffffffffffffffffffffffffffffff1673ffffffffffffffffffffffffffffffffffffffff168152602001908152602001600020600084815260200190815260200160002081905550816008600083815260200190815260200160002081905550505b6008600084815260200190815260200160002060009055600760008573ffffffffffffffffffffffffffffffffffffffff1673ffffffffffffffffffffffffffffffffffffffff16815260200190815260200160002060008381526020019081526020016000206000905550505050565b6000600160098054905061210491906130c5565b90506000600a600084815260200190815260200160002054905060006009838154811061213457612133612d8d565b5b90600052602060002001549050806009838154811061215657612155612d8d565b5b906000526020600020018190555081600a600083815260200190815260200160002081905550600a60008581526020019081526020016000206000905560098054806121a5576121a4613736565b5b6001900381819060005260206000200160009055905550505050565b60006121cc836109d9565b905081600760008573ffffffffffffffffffffffffffffffffffffffff1673ffffffffffffffffffffffffffffffffffffffff168152602001908152602001600020600083815260200190815260200160002081905550806008600084815260200190815260200160002081905550505050565b82805461224c906129bf565b90600052602060002090601f01602090048101928261226e57600085556122b5565b82601f1061228757805160ff19168380011785556122b5565b828001600101855582156122b5579182015b828111156122b4578251825591602001919060010190612299565b5b5090506122c291906122c6565b5090565b5b808211156122df5760008160009055506001016122c7565b5090565b6000604051905090565b600080fd5b600080fd5b60007fffffffff0000000000000000000000000000000000000000000000000000000082169050919050565b61232c816122f7565b811461233757600080fd5b50565b60008135905061234981612323565b92915050565b600060208284031215612365576123646122ed565b5b60006123738482850161233a565b91505092915050565b60008115159050919050565b6123918161237c565b82525050565b60006020820190506123ac6000830184612388565b92915050565b600081519050919050565b600082825260208201905092915050565b60005b838110156123ec5780820151818401526020810190506123d1565b838111156123fb576000848401525b50505050565b6000601f19601f8301169050919050565b600061241d826123b2565b61242781856123bd565b93506124378185602086016123ce565b61244081612401565b840191505092915050565b600060208201905081810360008301526124658184612412565b905092915050565b6000819050919050565b6124808161246d565b811461248b57600080fd5b50565b60008135905061249d81612477565b92915050565b6000602082840312156124b9576124b86122ed565b5b60006124c78482850161248e565b91505092915050565b600073ffffffffffffffffffffffffffffffffffffffff82169050919050565b60006124fb826124d0565b9050919050565b61250b816124f0565b82525050565b60006020820190506125266000830184612502565b92915050565b612535816124f0565b811461254057600080fd5b50565b6000813590506125528161252c565b92915050565b6000806040838503121561256f5761256e6122ed565b5b600061257d85828601612543565b925050602061258e8582860161248e565b9150509250929050565b6125a18161246d565b82525050565b60006020820190506125bc6000830184612598565b92915050565b6000806000606084860312156125db576125da6122ed565b5b60006125e986828701612543565b93505060206125fa86828701612543565b925050604061260b8682870161248e565b9150509250925092565b600080fd5b600080fd5b7f4e487b7100000000000000000000000000000000000000000000000000000000600052604160045260246000fd5b61265782612401565b810181811067ffffffffffffffff821117156126765761267561261f565b5b80604052505050565b60006126896122e3565b9050612695828261264e565b919050565b600067ffffffffffffffff8211156126b5576126b461261f565b5b6126be82612401565b9050602081019050919050565b82818337600083830152505050565b60006126ed6126e88461269a565b61267f565b9050828152602081018484840111156127095761270861261a565b5b6127148482856126cb565b509392505050565b600082601f83011261273157612730612615565b5b81356127418482602086016126da565b91505092915050565b6000602082840312156127605761275f6122ed565b5b600082013567ffffffffffffffff81111561277e5761277d6122f2565b5b61278a8482850161271c565b91505092915050565b6000602082840312156127a9576127a86122ed565b5b60006127b784828501612543565b91505092915050565b6127c98161237c565b81146127d457600080fd5b50565b6000813590506127e6816127c0565b92915050565b60008060408385031215612803576128026122ed565b5b600061281185828601612543565b9250506020612822858286016127d7565b9150509250929050565b600067ffffffffffffffff8211156128475761284661261f565b5b61285082612401565b9050602081019050919050565b600061287061286b8461282c565b61267f565b90508281526020810184848401111561288c5761288b61261a565b5b6128978482856126cb565b509392505050565b600082601f8301126128b4576128b3612615565b5b81356128c484826020860161285d565b91505092915050565b600080600080608085870312156128e7576128e66122ed565b5b60006128f587828801612543565b945050602061290687828801612543565b93505060406129178782880161248e565b925050606085013567ffffffffffffffff811115612938576129376122f2565b5b6129448782880161289f565b91505092959194509250565b60008060408385031215612967576129666122ed565b5b600061297585828601612543565b925050602061298685828601612543565b9150509250929050565b7f4e487b7100000000000000000000000000000000000000000000000000000000600052602260045260246000fd5b600060028204905060018216806129d757607f821691505b602082108114156129eb576129ea612990565b5b50919050565b7f4552433732313a20617070726f76656420717565727920666f72206e6f6e657860008201527f697374656e7420746f6b656e0000000000000000000000000000000000000000602082015250565b6000612a4d602c836123bd565b9150612a58826129f1565b604082019050919050565b60006020820190508181036000830152612a7c81612a40565b9050919050565b7f4552433732313a20617070726f76616c20746f2063757272656e74206f776e6560008201527f7200000000000000000000000000000000000000000000000000000000000000602082015250565b6000612adf6021836123bd565b9150612aea82612a83565b604082019050919050565b60006020820190508181036000830152612b0e81612ad2565b9050919050565b7f4552433732313a20617070726f76652063616c6c6572206973206e6f74206f7760008201527f6e6572206e6f7220617070726f76656420666f7220616c6c0000000000000000602082015250565b6000612b716038836123bd565b9150612b7c82612b15565b604082019050919050565b60006020820190508181036000830152612ba081612b64565b9050919050565b7f4552433732313a207472616e736665722063616c6c6572206973206e6f74206f60008201527f776e6572206e6f7220617070726f766564000000000000000000000000000000602082015250565b6000612c036031836123bd565b9150612c0e82612ba7565b604082019050919050565b60006020820190508181036000830152612c3281612bf6565b9050919050565b7f455243373231456e756d657261626c653a206f776e657220696e646578206f7560008201527f74206f6620626f756e6473000000000000000000000000000000000000000000602082015250565b6000612c95602b836123bd565b9150612ca082612c39565b604082019050919050565b60006020820190508181036000830152612cc481612c88565b9050919050565b60006040820190508181036000830152612ce58185612412565b9050612cf46020830184612502565b9392505050565b7f455243373231456e756d657261626c653a20676c6f62616c20696e646578206f60008201527f7574206f6620626f756e64730000000000000000000000000000000000000000602082015250565b6000612d57602c836123bd565b9150612d6282612cfb565b604082019050919050565b60006020820190508181036000830152612d8681612d4a565b9050919050565b7f4e487b7100000000000000000000000000000000000000000000000000000000600052603260045260246000fd5b7f4552433732313a206f776e657220717565727920666f72206e6f6e657869737460008201527f656e7420746f6b656e0000000000000000000000000000000000000000000000602082015250565b6000612e186029836123bd565b9150612e2382612dbc565b604082019050919050565b60006020820190508181036000830152612e4781612e0b565b9050919050565b7f4552433732313a2062616c616e636520717565727920666f7220746865207a6560008201527f726f206164647265737300000000000000000000000000000000000000000000602082015250565b6000612eaa602a836123bd565b9150612eb582612e4e565b604082019050919050565b60006020820190508181036000830152612ed981612e9d565b9050919050565b7f4552433732313a206f70657261746f7220717565727920666f72206e6f6e657860008201527f697374656e7420746f6b656e0000000000000000000000000000000000000000602082015250565b6000612f3c602c836123bd565b9150612f4782612ee0565b604082019050919050565b60006020820190508181036000830152612f6b81612f2f565b9050919050565b7f4552433732313a207472616e73666572206f6620746f6b656e2074686174206960008201527f73206e6f74206f776e0000000000000000000000000000000000000000000000602082015250565b6000612fce6029836123bd565b9150612fd982612f72565b604082019050919050565b60006020820190508181036000830152612ffd81612fc1565b9050919050565b7f4552433732313a207472616e7366657220746f20746865207a65726f2061646460008201527f7265737300000000000000000000000000000000000000000000000000000000602082015250565b60006130606024836123bd565b915061306b82613004565b604082019050919050565b6000602082019050818103600083015261308f81613053565b9050919050565b7f4e487b7100000000000000000000000000000000000000000000000000000000600052601160045260246000fd5b60006130d08261246d565b91506130db8361246d565b9250828210156130ee576130ed613096565b5b828203905092915050565b60006131048261246d565b915061310f8361246d565b9250827fffffffffffffffffffffffffffffffffffffffffffffffffffffffffffffffff0382111561314457613143613096565b5b828201905092915050565b7f4552433732313a206d696e7420746f20746865207a65726f2061646472657373600082015250565b60006131856020836123bd565b91506131908261314f565b602082019050919050565b600060208201905081810360008301526131b481613178565b9050919050565b7f4552433732313a20746f6b656e20616c7265616479206d696e74656400000000600082015250565b60006131f1601c836123bd565b91506131fc826131bb565b602082019050919050565b60006020820190508181036000830152613220816131e4565b9050919050565b7f45524337323155524953746f726167653a2055524920736574206f66206e6f6e60008201527f6578697374656e7420746f6b656e000000000000000000000000000000000000602082015250565b6000613283602e836123bd565b915061328e82613227565b604082019050919050565b600060208201905081810360008301526132b281613276565b9050919050565b600060608201905081810360008301526132d38186612412565b90506132e26020830185612598565b6132ef6040830184612502565b949350505050565b7f4552433732313a20617070726f766520746f2063616c6c657200000000000000600082015250565b600061332d6019836123bd565b9150613338826132f7565b602082019050919050565b6000602082019050818103600083015261335c81613320565b9050919050565b7f4552433732313a207472616e7366657220746f206e6f6e20455243373231526560008201527f63656976657220696d706c656d656e7465720000000000000000000000000000602082015250565b60006133bf6032836123bd565b91506133ca82613363565b604082019050919050565b600060208201905081810360008301526133ee816133b2565b9050919050565b7f45524337323155524953746f726167653a2055524920717565727920666f722060008201527f6e6f6e6578697374656e7420746f6b656e000000000000000000000000000000602082015250565b60006134516031836123bd565b915061345c826133f5565b604082019050919050565b6000602082019050818103600083015261348081613444565b9050919050565b600081905092915050565b600061349d826123b2565b6134a78185613487565b93506134b78185602086016123ce565b80840191505092915050565b60006134cf8285613492565b91506134db8284613492565b91508190509392505050565b600081519050919050565b600082825260208201905092915050565b600061350e826134e7565b61351881856134f2565b93506135288185602086016123ce565b61353181612401565b840191505092915050565b60006080820190506135516000830187612502565b61355e6020830186612502565b61356b6040830185612598565b818103606083015261357d8184613503565b905095945050505050565b60008151905061359781612323565b92915050565b6000602082840312156135b3576135b26122ed565b5b60006135c184828501613588565b91505092915050565b7f4552433732314d657461646174613a2055524920717565727920666f72206e6f60008201527f6e6578697374656e7420746f6b656e0000000000000000000000000000000000602082015250565b6000613626602f836123bd565b9150613631826135ca565b604082019050919050565b6000602082019050818103600083015261365581613619565b9050919050565b60006136678261246d565b91507fffffffffffffffffffffffffffffffffffffffffffffffffffffffffffffffff82141561369a57613699613096565b5b600182019050919050565b7f4e487b7100000000000000000000000000000000000000000000000000000000600052601260045260246000fd5b60006136df8261246d565b91506136ea8361246d565b9250826136fa576136f96136a5565b5b828204905092915050565b60006137108261246d565b915061371b8361246d565b92508261372b5761372a6136a5565b5b828206905092915050565b7f4e487b7100000000000000000000000000000000000000000000000000000000600052603160045260246000fdfe68747470733a2f2f617277656176652e6e65742f4f73716c6d46422d695f644e394a31675f6a53765664736f5258504a42337578397574445a376973306b4da26469706673582212204fdb711ebad39571b782da4536229efb8f4e2e0c9a27a4e376334742773d521f64736f6c63430008090033",
  "linkReferences": {},
  "deployedLinkReferences": {}
}