{
  "_format": "hh-sol-artifact-1",
  "contractName": "NFTMarketplace",
  "sourceName": "contracts/Marketplace.sol",
  "abi": [
    {
      "inputs": [
        {
          "internalType": "uint256",
          "name": "_listingPrice",
          "type": "uint256"
        }
      ],
      "stateMutability": "nonpayable",
      "type": "constructor"
    },
    {
      "anonymous": false,
      "inputs": [
        {
          "indexed": true,
          "internalType": "uint256",
          "name": "id",
          "type": "uint256"
        },
        {
          "indexed": true,
          "internalType": "uint256",
          "name": "tokenId",
          "type": "uint256"
        },
        {
          "indexed": true,
          "internalType": "address",
          "name": "tokenAddress",
          "type": "address"
        },
        {
          "indexed": false,
          "internalType": "address",
          "name": "seller",
          "type": "address"
        },
        {
          "indexed": false,
          "internalType": "uint256",
          "name": "price",
          "type": "uint256"
        }
      ],
      "name": "ListingItemCreated",
      "type": "event"
    },
    {
      "anonymous": false,
      "inputs": [
        {
          "indexed": true,
          "internalType": "address",
          "name": "previousOwner",
          "type": "address"
        },
        {
          "indexed": true,
          "internalType": "address",
          "name": "newOwner",
          "type": "address"
        }
      ],
      "name": "OwnershipTransferred",
      "type": "event"
    },
    {
      "inputs": [
        {
          "internalType": "uint256",
          "name": "listingId",
          "type": "uint256"
        }
      ],
      "name": "buyItem",
      "outputs": [],
      "stateMutability": "payable",
      "type": "function"
    },
    {
      "inputs": [
        {
          "internalType": "uint256",
          "name": "listingId",
          "type": "uint256"
        }
      ],
      "name": "cancelListing",
      "outputs": [],
      "stateMutability": "nonpayable",
      "type": "function"
    },
    {
      "inputs": [
        {
          "internalType": "uint256",
          "name": "listingId",
          "type": "uint256"
        }
      ],
      "name": "getItemPrice",
      "outputs": [
        {
          "internalType": "uint256",
          "name": "",
          "type": "uint256"
        }
      ],
      "stateMutability": "view",
      "type": "function"
    },
    {
      "inputs": [
        {
          "internalType": "uint256",
          "name": "offset",
          "type": "uint256"
        },
        {
          "internalType": "uint256",
          "name": "limit",
          "type": "uint256"
        }
      ],
      "name": "getListingItems",
      "outputs": [
        {
          "components": [
            {
              "internalType": "uint256",
              "name": "tokenId",
              "type": "uint256"
            },
            {
              "internalType": "address",
              "name": "tokenAddress",
              "type": "address"
            },
            {
              "internalType": "address payable",
              "name": "seller",
              "type": "address"
            },
            {
              "internalType": "uint256",
              "name": "price",
              "type": "uint256"
            },
            {
              "internalType": "bool",
              "name": "isSold",
              "type": "bool"
            }
          ],
          "internalType": "struct NFTMarketplace.ListingItem[]",
          "name": "",
          "type": "tuple[]"
        }
      ],
      "stateMutability": "view",
      "type": "function"
    },
    {
      "inputs": [],
      "name": "getTotalItems",
      "outputs": [
        {
          "internalType": "uint256",
          "name": "",
          "type": "uint256"
        }
      ],
      "stateMutability": "view",
      "type": "function"
    },
    {
      "inputs": [],
      "name": "getTotalUnsoldItems",
      "outputs": [
        {
          "internalType": "uint256",
          "name": "",
          "type": "uint256"
        }
      ],
      "stateMutability": "view",
      "type": "function"
    },
    {
      "inputs": [
        {
          "internalType": "uint256",
          "name": "offset",
          "type": "uint256"
        },
        {
          "internalType": "uint256",
          "name": "limit",
          "type": "uint256"
        }
      ],
      "name": "getUnsoldItems",
      "outputs": [
        {
          "components": [
            {
              "internalType": "uint256",
              "name": "tokenId",
              "type": "uint256"
            },
            {
              "internalType": "address",
              "name": "tokenAddress",
              "type": "address"
            },
            {
              "internalType": "address payable",
              "name": "seller",
              "type": "address"
            },
            {
              "internalType": "uint256",
              "name": "price",
              "type": "uint256"
            },
            {
              "internalType": "bool",
              "name": "isSold",
              "type": "bool"
            }
          ],
          "internalType": "struct NFTMarketplace.ListingItem[]",
          "name": "",
          "type": "tuple[]"
        },
        {
          "internalType": "uint256[]",
          "name": "",
          "type": "uint256[]"
        }
      ],
      "stateMutability": "view",
      "type": "function"
    },
    {
      "inputs": [
        {
          "internalType": "address",
          "name": "tokenAddress",
          "type": "address"
        },
        {
          "internalType": "uint256",
          "name": "tokenId",
          "type": "uint256"
        },
        {
          "internalType": "uint256",
          "name": "price",
          "type": "uint256"
        }
      ],
      "name": "listItem",
      "outputs": [
        {
          "internalType": "uint256",
          "name": "",
          "type": "uint256"
        }
      ],
      "stateMutability": "payable",
      "type": "function"
    },
    {
      "inputs": [
        {
          "internalType": "uint256",
          "name": "",
          "type": "uint256"
        }
      ],
      "name": "listingItems",
      "outputs": [
        {
          "internalType": "uint256",
          "name": "tokenId",
          "type": "uint256"
        },
        {
          "internalType": "address",
          "name": "tokenAddress",
          "type": "address"
        },
        {
          "internalType": "address payable",
          "name": "seller",
          "type": "address"
        },
        {
          "internalType": "uint256",
          "name": "price",
          "type": "uint256"
        },
        {
          "internalType": "bool",
          "name": "isSold",
          "type": "bool"
        }
      ],
      "stateMutability": "view",
      "type": "function"
    },
    {
      "inputs": [],
      "name": "listingPrice",
      "outputs": [
        {
          "internalType": "uint256",
          "name": "",
          "type": "uint256"
        }
      ],
      "stateMutability": "view",
      "type": "function"
    },
    {
      "inputs": [],
      "name": "owner",
      "outputs": [
        {
          "internalType": "address",
          "name": "",
          "type": "address"
        }
      ],
      "stateMutability": "view",
      "type": "function"
    },
    {
      "inputs": [],
      "name": "renounceOwnership",
      "outputs": [],
      "stateMutability": "nonpayable",
      "type": "function"
    },
    {
      "inputs": [],
      "name": "totalListingItems",
      "outputs": [
        {
          "internalType": "uint256",
          "name": "",
          "type": "uint256"
        }
      ],
      "stateMutability": "view",
      "type": "function"
    },
    {
      "inputs": [
        {
          "internalType": "address",
          "name": "newOwner",
          "type": "address"
        }
      ],
      "name": "transferOwnership",
      "outputs": [],
      "stateMutability": "nonpayable",
      "type": "function"
    }
  ],
  "bytecode": "0x60806040523480156200001157600080fd5b506040516200231a3803806200231a833981810160405281019062000037919062000178565b620000576200004b6200006c60201b60201c565b6200007460201b60201c565b600180819055508060028190555050620001aa565b600033905090565b60008060009054906101000a900473ffffffffffffffffffffffffffffffffffffffff169050816000806101000a81548173ffffffffffffffffffffffffffffffffffffffff021916908373ffffffffffffffffffffffffffffffffffffffff1602179055508173ffffffffffffffffffffffffffffffffffffffff168173ffffffffffffffffffffffffffffffffffffffff167f8be0079c531659141344cd1fd0a4f28419497f9722a3daafe3b4186f6b6457e060405160405180910390a35050565b600080fd5b6000819050919050565b62000152816200013d565b81146200015e57600080fd5b50565b600081519050620001728162000147565b92915050565b60006020828403121562000191576200019062000138565b5b6000620001a18482850162000161565b91505092915050565b61216080620001ba6000396000f3fe6080604052600436106100dd5760003560e01c8063be03120d1161007f578063e20f807b11610059578063e20f807b146102cc578063e59b9670146102f7578063e7fb74c714610322578063f2fde38b1461033e576100dd565b8063be03120d14610226578063c78f19f914610263578063cfc621361461028e576100dd565b80634c4df870116100bb5780634c4df87014610177578063715018a6146101b457806389bfd38f146101cb5780638da5cb5b146101fb576100dd565b8063305a67a8146100e2578063310aac691461010b57806331e3a12e14610136575b600080fd5b3480156100ee57600080fd5b5061010960048036038101906101049190611594565b610367565b005b34801561011757600080fd5b5061012061058b565b60405161012d91906115d0565b60405180910390f35b34801561014257600080fd5b5061015d60048036038101906101589190611594565b61059c565b60405161016e959493929190611668565b60405180910390f35b34801561018357600080fd5b5061019e60048036038101906101999190611594565b61061f565b6040516101ab91906115d0565b60405180910390f35b3480156101c057600080fd5b506101c961063f565b005b6101e560048036038101906101e091906116e7565b6106c7565b6040516101f291906115d0565b60405180910390f35b34801561020757600080fd5b506102106109f6565b60405161021d919061173a565b60405180910390f35b34801561023257600080fd5b5061024d60048036038101906102489190611755565b610a1f565b60405161025a91906118e8565b60405180910390f35b34801561026f57600080fd5b50610278610ced565b60405161028591906115d0565b60405180910390f35b34801561029a57600080fd5b506102b560048036038101906102b09190611755565b610cf3565b6040516102c39291906119b9565b60405180910390f35b3480156102d857600080fd5b506102e1610fe2565b6040516102ee91906115d0565b60405180910390f35b34801561030357600080fd5b5061030c611007565b60405161031991906115d0565b60405180910390f35b61033c60048036038101906103379190611594565b611018565b005b34801561034a57600080fd5b50610365600480360381019061036091906119f0565b61124f565b005b6000600560008381526020019081526020016000209050600015158160040160009054906101000a900460ff161515146103d6576040517f08c379a00000000000000000000000000000000000000000000000000000000081526004016103cd90611a7a565b60405180910390fd5b3373ffffffffffffffffffffffffffffffffffffffff168160020160009054906101000a900473ffffffffffffffffffffffffffffffffffffffff1673ffffffffffffffffffffffffffffffffffffffff1614610468576040517f08c379a000000000000000000000000000000000000000000000000000000000815260040161045f90611ae6565b60405180910390fd5b8060010160009054906101000a900473ffffffffffffffffffffffffffffffffffffffff1673ffffffffffffffffffffffffffffffffffffffff166323b872dd303384600001546040518463ffffffff1660e01b81526004016104cd93929190611b06565b600060405180830381600087803b1580156104e757600080fd5b505af11580156104fb573d6000803e3d6000fd5b50505050600560008381526020019081526020016000206000808201600090556001820160006101000a81549073ffffffffffffffffffffffffffffffffffffffff02191690556002820160006101000a81549073ffffffffffffffffffffffffffffffffffffffff021916905560038201600090556004820160006101000a81549060ff021916905550505050565b60006105976003611347565b905090565b60056020528060005260406000206000915090508060000154908060010160009054906101000a900473ffffffffffffffffffffffffffffffffffffffff16908060020160009054906101000a900473ffffffffffffffffffffffffffffffffffffffff16908060030154908060040160009054906101000a900460ff16905085565b600060056000838152602001908152602001600020600301549050919050565b610647611355565b73ffffffffffffffffffffffffffffffffffffffff166106656109f6565b73ffffffffffffffffffffffffffffffffffffffff16146106bb576040517f08c379a00000000000000000000000000000000000000000000000000000000081526004016106b290611b89565b60405180910390fd5b6106c5600061135d565b565b60006002600154141561070f576040517f08c379a000000000000000000000000000000000000000000000000000000000815260040161070690611bf5565b60405180910390fd5b60026001819055506000821161075a576040517f08c379a000000000000000000000000000000000000000000000000000000000815260040161075190611c61565b60405180910390fd5b600254341461079e576040517f08c379a000000000000000000000000000000000000000000000000000000000815260040161079590611cf3565b60405180910390fd5b8373ffffffffffffffffffffffffffffffffffffffff166323b872dd3330866040518463ffffffff1660e01b81526004016107db93929190611b06565b600060405180830381600087803b1580156107f557600080fd5b505af1158015610809573d6000803e3d6000fd5b5050505060006108196003611347565b90506040518060a001604052808581526020018673ffffffffffffffffffffffffffffffffffffffff1681526020013373ffffffffffffffffffffffffffffffffffffffff16815260200184815260200160001515815250600560008381526020019081526020016000206000820151816000015560208201518160010160006101000a81548173ffffffffffffffffffffffffffffffffffffffff021916908373ffffffffffffffffffffffffffffffffffffffff16021790555060408201518160020160006101000a81548173ffffffffffffffffffffffffffffffffffffffff021916908373ffffffffffffffffffffffffffffffffffffffff1602179055506060820151816003015560808201518160040160006101000a81548160ff0219169083151502179055509050506109886040518060400160405280601781526020017f4c697374696e67206974656d207769746820696420257300000000000000000081525082611421565b8473ffffffffffffffffffffffffffffffffffffffff1684827ffe4c99c112bfda597518df080ef7b925100c2be054783fd9cceb6ef44648d3a333876040516109d2929190611d13565b60405180910390a46109e460036114bd565b80915050600180819055509392505050565b60008060009054906101000a900473ffffffffffffffffffffffffffffffffffffffff16905090565b60606000831015610a65576040517f08c379a0000000000000000000000000000000000000000000000000000000008152600401610a5c90611d88565b60405180910390fd5b60008211610aa8576040517f08c379a0000000000000000000000000000000000000000000000000000000008152600401610a9f90611df4565b60405180910390fd5b6000610ab46003611347565b8385610ac09190611e43565b11610acb5782610ae1565b83610ad66003611347565b610ae09190611e99565b5b905060008111610b4857600067ffffffffffffffff811115610b0657610b05611ecd565b5b604051908082528060200260200182016040528015610b3f57816020015b610b2c6114fc565b815260200190600190039081610b245790505b50915050610ce7565b60008167ffffffffffffffff811115610b6457610b63611ecd565b5b604051908082528060200260200182016040528015610b9d57816020015b610b8a6114fc565b815260200190600190039081610b825790505b50905060005b82811015610ce057600560008783610bbb9190611e43565b81526020019081526020016000206040518060a0016040529081600082015481526020016001820160009054906101000a900473ffffffffffffffffffffffffffffffffffffffff1673ffffffffffffffffffffffffffffffffffffffff1673ffffffffffffffffffffffffffffffffffffffff1681526020016002820160009054906101000a900473ffffffffffffffffffffffffffffffffffffffff1673ffffffffffffffffffffffffffffffffffffffff1673ffffffffffffffffffffffffffffffffffffffff168152602001600382015481526020016004820160009054906101000a900460ff161515151581525050828281518110610cc257610cc1611efc565b5b60200260200101819052508080610cd890611f2b565b915050610ba3565b5080925050505b92915050565b60025481565b6060806000841015610d3a576040517f08c379a0000000000000000000000000000000000000000000000000000000008152600401610d3190611d88565b60405180910390fd5b60008311610d7d576040517f08c379a0000000000000000000000000000000000000000000000000000000008152600401610d7490611df4565b60405180910390fd5b60008367ffffffffffffffff811115610d9957610d98611ecd565b5b604051908082528060200260200182016040528015610dd257816020015b610dbf6114fc565b815260200190600190039081610db75790505b50905060008467ffffffffffffffff811115610df157610df0611ecd565b5b604051908082528060200260200182016040528015610e1f5781602001602082028036833780820191505090505b5090506000806000610e316003611347565b90505b808984610e419190611e43565b108015610e4d57508782105b15610fd0576000600560008b86610e649190611e43565b81526020019081526020016000206040518060a0016040529081600082015481526020016001820160009054906101000a900473ffffffffffffffffffffffffffffffffffffffff1673ffffffffffffffffffffffffffffffffffffffff1673ffffffffffffffffffffffffffffffffffffffff1681526020016002820160009054906101000a900473ffffffffffffffffffffffffffffffffffffffff1673ffffffffffffffffffffffffffffffffffffffff1673ffffffffffffffffffffffffffffffffffffffff168152602001600382015481526020016004820160009054906101000a900460ff16151515158152505090508060800151610fbc5780868481518110610f7757610f76611efc565b5b60200260200101819052508984610f8e9190611e43565b858481518110610fa157610fa0611efc565b5b6020026020010181815250508280610fb890611f2b565b9350505b8380610fc790611f2b565b94505050610e34565b84849650965050505050509250929050565b6000610fee6004611347565b610ff86003611347565b6110029190611e99565b905090565b60006110136003611347565b905090565b6002600154141561105e576040517f08c379a000000000000000000000000000000000000000000000000000000000815260040161105590611bf5565b60405180910390fd5b60026001819055506000600560008381526020019081526020016000209050600015158160040160009054906101000a900460ff161515146110d5576040517f08c379a00000000000000000000000000000000000000000000000000000000081526004016110cc90611a7a565b60405180910390fd5b3481600301541461111b576040517f08c379a000000000000000000000000000000000000000000000000000000000815260040161111290611fc0565b60405180910390fd5b8060020160009054906101000a900473ffffffffffffffffffffffffffffffffffffffff1673ffffffffffffffffffffffffffffffffffffffff166108fc349081150290604051600060405180830381858888f19350505050158015611185573d6000803e3d6000fd5b508060010160009054906101000a900473ffffffffffffffffffffffffffffffffffffffff1673ffffffffffffffffffffffffffffffffffffffff166323b872dd303384600001546040518463ffffffff1660e01b81526004016111eb93929190611b06565b600060405180830381600087803b15801561120557600080fd5b505af1158015611219573d6000803e3d6000fd5b5050505060018160040160006101000a81548160ff02191690831515021790555061124460046114bd565b506001808190555050565b611257611355565b73ffffffffffffffffffffffffffffffffffffffff166112756109f6565b73ffffffffffffffffffffffffffffffffffffffff16146112cb576040517f08c379a00000000000000000000000000000000000000000000000000000000081526004016112c290611b89565b60405180910390fd5b600073ffffffffffffffffffffffffffffffffffffffff168173ffffffffffffffffffffffffffffffffffffffff16141561133b576040517f08c379a000000000000000000000000000000000000000000000000000000000815260040161133290612052565b60405180910390fd5b6113448161135d565b50565b600081600001549050919050565b600033905090565b60008060009054906101000a900473ffffffffffffffffffffffffffffffffffffffff169050816000806101000a81548173ffffffffffffffffffffffffffffffffffffffff021916908373ffffffffffffffffffffffffffffffffffffffff1602179055508173ffffffffffffffffffffffffffffffffffffffff168173ffffffffffffffffffffffffffffffffffffffff167f8be0079c531659141344cd1fd0a4f28419497f9722a3daafe3b4186f6b6457e060405160405180910390a35050565b6114b982826040516024016114379291906120fa565b6040516020818303038152906040527fb60e72cc000000000000000000000000000000000000000000000000000000007bffffffffffffffffffffffffffffffffffffffffffffffffffffffff19166020820180517bffffffffffffffffffffffffffffffffffffffffffffffffffffffff83818316178352505050506114d3565b5050565b6001816000016000828254019250508190555050565b60008151905060006a636f6e736f6c652e6c6f679050602083016000808483855afa5050505050565b6040518060a0016040528060008152602001600073ffffffffffffffffffffffffffffffffffffffff168152602001600073ffffffffffffffffffffffffffffffffffffffff168152602001600081526020016000151581525090565b600080fd5b6000819050919050565b6115718161155e565b811461157c57600080fd5b50565b60008135905061158e81611568565b92915050565b6000602082840312156115aa576115a9611559565b5b60006115b88482850161157f565b91505092915050565b6115ca8161155e565b82525050565b60006020820190506115e560008301846115c1565b92915050565b600073ffffffffffffffffffffffffffffffffffffffff82169050919050565b6000611616826115eb565b9050919050565b6116268161160b565b82525050565b6000611637826115eb565b9050919050565b6116478161162c565b82525050565b60008115159050919050565b6116628161164d565b82525050565b600060a08201905061167d60008301886115c1565b61168a602083018761161d565b611697604083018661163e565b6116a460608301856115c1565b6116b16080830184611659565b9695505050505050565b6116c48161160b565b81146116cf57600080fd5b50565b6000813590506116e1816116bb565b92915050565b600080600060608486031215611700576116ff611559565b5b600061170e868287016116d2565b935050602061171f8682870161157f565b92505060406117308682870161157f565b9150509250925092565b600060208201905061174f600083018461161d565b92915050565b6000806040838503121561176c5761176b611559565b5b600061177a8582860161157f565b925050602061178b8582860161157f565b9150509250929050565b600081519050919050565b600082825260208201905092915050565b6000819050602082019050919050565b6117ca8161155e565b82525050565b6117d98161160b565b82525050565b6117e88161162c565b82525050565b6117f78161164d565b82525050565b60a08201600082015161181360008501826117c1565b50602082015161182660208501826117d0565b50604082015161183960408501826117df565b50606082015161184c60608501826117c1565b50608082015161185f60808501826117ee565b50505050565b600061187183836117fd565b60a08301905092915050565b6000602082019050919050565b600061189582611795565b61189f81856117a0565b93506118aa836117b1565b8060005b838110156118db5781516118c28882611865565b97506118cd8361187d565b9250506001810190506118ae565b5085935050505092915050565b60006020820190508181036000830152611902818461188a565b905092915050565b600081519050919050565b600082825260208201905092915050565b6000819050602082019050919050565b600061194283836117c1565b60208301905092915050565b6000602082019050919050565b60006119668261190a565b6119708185611915565b935061197b83611926565b8060005b838110156119ac5781516119938882611936565b975061199e8361194e565b92505060018101905061197f565b5085935050505092915050565b600060408201905081810360008301526119d3818561188a565b905081810360208301526119e7818461195b565b90509392505050565b600060208284031215611a0657611a05611559565b5b6000611a14848285016116d2565b91505092915050565b600082825260208201905092915050565b7f4974656d20697320616c726561647920736f6c64000000000000000000000000600082015250565b6000611a64601483611a1d565b9150611a6f82611a2e565b602082019050919050565b60006020820190508181036000830152611a9381611a57565b9050919050565b7f4f6e6c792073656c6c65722063616e2063616e63656c206c697374696e670000600082015250565b6000611ad0601e83611a1d565b9150611adb82611a9a565b602082019050919050565b60006020820190508181036000830152611aff81611ac3565b9050919050565b6000606082019050611b1b600083018661161d565b611b28602083018561161d565b611b3560408301846115c1565b949350505050565b7f4f776e61626c653a2063616c6c6572206973206e6f7420746865206f776e6572600082015250565b6000611b73602083611a1d565b9150611b7e82611b3d565b602082019050919050565b60006020820190508181036000830152611ba281611b66565b9050919050565b7f5265656e7472616e637947756172643a207265656e7472616e742063616c6c00600082015250565b6000611bdf601f83611a1d565b9150611bea82611ba9565b602082019050919050565b60006020820190508181036000830152611c0e81611bd2565b9050919050565b7f5072696365206d7573742062652067726561746572207468616e203000000000600082015250565b6000611c4b601c83611a1d565b9150611c5682611c15565b602082019050919050565b60006020820190508181036000830152611c7a81611c3e565b9050919050565b7f5072696365206d75737420626520657175616c20746f206c697374696e67207060008201527f7269636500000000000000000000000000000000000000000000000000000000602082015250565b6000611cdd602483611a1d565b9150611ce882611c81565b604082019050919050565b60006020820190508181036000830152611d0c81611cd0565b9050919050565b6000604082019050611d28600083018561161d565b611d3560208301846115c1565b9392505050565b7f6f6666736574206d7573742062652067726561746572207468616e2030000000600082015250565b6000611d72601d83611a1d565b9150611d7d82611d3c565b602082019050919050565b60006020820190508181036000830152611da181611d65565b9050919050565b7f6c696d6974206d7573742062652067726561746572207468616e203000000000600082015250565b6000611dde601c83611a1d565b9150611de982611da8565b602082019050919050565b60006020820190508181036000830152611e0d81611dd1565b9050919050565b7f4e487b7100000000000000000000000000000000000000000000000000000000600052601160045260246000fd5b6000611e4e8261155e565b9150611e598361155e565b9250827fffffffffffffffffffffffffffffffffffffffffffffffffffffffffffffffff03821115611e8e57611e8d611e14565b5b828201905092915050565b6000611ea48261155e565b9150611eaf8361155e565b925082821015611ec257611ec1611e14565b5b828203905092915050565b7f4e487b7100000000000000000000000000000000000000000000000000000000600052604160045260246000fd5b7f4e487b7100000000000000000000000000000000000000000000000000000000600052603260045260246000fd5b6000611f368261155e565b91507fffffffffffffffffffffffffffffffffffffffffffffffffffffffffffffffff821415611f6957611f68611e14565b5b600182019050919050565b7f5072696365206973206e6f7420636f7272656374000000000000000000000000600082015250565b6000611faa601483611a1d565b9150611fb582611f74565b602082019050919050565b60006020820190508181036000830152611fd981611f9d565b9050919050565b7f4f776e61626c653a206e6577206f776e657220697320746865207a65726f206160008201527f6464726573730000000000000000000000000000000000000000000000000000602082015250565b600061203c602683611a1d565b915061204782611fe0565b604082019050919050565b6000602082019050818103600083015261206b8161202f565b9050919050565b600081519050919050565b60005b8381101561209b578082015181840152602081019050612080565b838111156120aa576000848401525b50505050565b6000601f19601f8301169050919050565b60006120cc82612072565b6120d68185611a1d565b93506120e681856020860161207d565b6120ef816120b0565b840191505092915050565b6000604082019050818103600083015261211481856120c1565b905061212360208301846115c1565b939250505056fea2646970667358221220b6050d7a145e8201a24a2e5781c89e45b28720d933274695369028ca4b532a7064736f6c63430008090033",
  "linkReferences": {},
  "deployedLinkReferences": {}
}